:100000000C94D4000C941D080C94F6070C94FC007E
:100010000C94FC000C94FC000C94FC000C94440820
:100020000C94FC000C94FC000C94FC000C94FC0060
:100030000C94FC000C94FC000C94FC000C94FC0050
:100040000C94630C0C94FC000C94C6080C94A0084F
:100050000C94FC000C94FC000C94FC000C94FC0030
:100060000C94FC000C94FC00DD06F206040730073B
:10007000390742075607B307590762076B0774072A
:10008000B3072C077E07820795078607A307AD07EE
:10009000F00D130E2E0E400E310E400E1F0E100EE0
:1000A000190E1C0E070E370E0D0E280E0A0EED0D42
:1000B000CC0DCF0DD20DD50DD80DDB0DDE0DE10D24
:1000C000E40DE70D220E250E370EEA0D3A0E160E40
:1000D000340E7E0D810D840D870D8A0D8D0D900DD2
:1000E000930D960D990D9C0D9F0DA20DA50DA80DBC
:1000F000AB0DAE0DB10DB40DB70DBA0DBD0DC00DEC
:10010000C30DC60DC90D400E400E400E400E2B0E05
:10011000400E400E400E400E400E400E400E400E6F
:10012000400E400E400E400E400E400E400E400E5F
:10013000400E400E400E400E400E400E400E400E4F
:10014000400E400E400E400E750D000000002400D1
:1001500027002A00000000002300260029000000DC
:100160000008000201000003040700000000000076
:100170000000010204081020408001020408102041
:1001800001020408102000000000250028002B00B8
:10019000040404040404040402020202020203032D
:1001A000030303030200F20E11241FBECFEFD4E0BD
:1001B000DEBFCDBF11E0A0E0B1E0ECE3F8E202C0A9
:1001C00005900D92A63FB107D9F723E0A6EFB1E065
:1001D00001C01D92A83EB207E1F710E0C4EDD0E0E7
:1001E00004C02197FE010E941A12C33DD107C9F72E
:1001F0000E94AD0C0C941C140C9400000895CF9236
:10020000DF92EF92FF920F931F93CF93DF936C01D6
:100210007A018B01C0E0D0E0CE15DF0581F0D80176
:100220006D918D01D601ED91FC910190F081E02D51
:10023000C6010995892B11F02196EECF7E01C701E9
:10024000DF91CF911F910F91FF90EF90DF90CF90B2
:100250000895089580E090E00895FC01538D448D49
:10026000252F30E0842F90E0821B930B541710F061
:10027000CF96089501970895FC01918D828D98176E
:1002800061F0828DDF01A80FB11D5D968C91928D7A
:100290009F5F9F73928F90E008958FEF9FEF089577
:1002A000FC01918D828D981731F0828DE80FF11D40
:1002B000858D90E008958FEF9FEF0895FC01918D5B
:1002C000228D892F90E0805C9F4F821B91098F7354
:1002D000992708958DE293E00E945E0121E0892B29
:1002E00009F420E0822F0895FC01848DDF01A80F1E
:1002F000B11DA35ABF4F2C91848D90E001968F734E
:100300009927848FA689B7892C93A089B1898C916C
:10031000837080648C93938D848D981306C00288BB
:10032000F389E02D80818F7D80830895EF92FF9285
:100330000F931F93CF93DF93EC0181E0888F9B8D08
:100340008C8D981305C0E889F989808185FD26C0C8
:10035000F62E0B8D10E00F5F1F4F0F731127E02E4D
:100360008C8DE8120CC00FB607FCFACFE889F9892A
:10037000808185FFF5CFCE010E947401F1CF8B8D76
:10038000FE01E80FF11DE35AFF4FF0829FB7F8948A
:100390000B8FEA89FB89808180620AC09FB7F8943D
:1003A000EE89FF896083E889F989808183708064A0
:1003B00080839FBF81E090E0DF91CF911F910F91EB
:1003C000FF90EF900895CF93DF93EC01888D882301
:1003D000C9F0EA89FB89808185FD05C0A889B989B2
:1003E0008C9186FD0FC00FB607FCF5CF808185FF8D
:1003F000F2CFA889B9898C9185FFEDCFCE010E94FB
:100400007401E7CFDF91CF91089580E090E0892BD0
:1004100029F00E946A0181110C94000008958091D6
:100420001C0290912603891B0895CF930E940F020E
:10043000882311F060EA01C060E8809119028111FF
:100440006061809118028111686080912703882380
:1004500049F080912302909124028134910510F497
:10046000C82F01C0C0E08DE293E00E9496016C2F7E
:100470008DE293E0CF910C94960180911702811147
:100480000C941502089580912502813061F48091C9
:10049000250210921C02109226030E943D02109227
:1004A0001B0210921A0208950C94430280912603B5
:1004B00090911C02891719F08F5F8093260308958D
:1004C000CF92DF92EF92FF9280E480937C00809144
:1004D0007A00806480937A0080917A0086FDFCCF58
:1004E000A091780080917900C090FC01D12CE12C82
:1004F000F12CB0E0B82B2091FD01422F50E060E0DC
:1005000070E09A01AB012C193D094E095F090E9468
:1005100068102091FA013091FB01032E000C440B6E
:10052000550B0E943E10822F8C0DFF90EF90DF90B4
:10053000CF9008952091FC0130E08217930764F07A
:100540002091FD0130E02817390734F09093240200
:10055000809323020C943D0208950E940714909109
:100560000401891324C0E4EAF1E0E4919FEF909341
:100570000401E130B9F098F0E230C9F490917000D4
:100580009D7F9093700091E09093B0009091B100A6
:10059000987F94609093B1001092B30008C01092BD
:1005A0006E0005C090916F009D7F90936F0060E09A
:1005B0000C94A209482F50E02091190230E0421714
:1005C0005307E9F080931902882379F061E089E00C
:1005D0000E94A2090E943D026091130270911402D0
:1005E00080E090E00E941D0C0CC060E089E00E9459
:1005F000A20910921B0210921A020C943D02882349
:1006000051F00E94570C6093FF0170930002809399
:10061000010290930202089560E08AE00E94A2091C
:1006200060E089E00E94A2098BE00E94AF02109274
:100630001F02109216021092150210921C021092C4
:10064000260310920302109204021092F8011092F5
:1006500018021092FF0110920002109201021092F3
:100660000202109219021092F90110921B021092CC
:100670001A021092250208958F929F92AF92BF9214
:10068000CF92DF92EF92FF9280911802882359F067
:100690000E94570C6093FF01709300028093010247
:1006A0009093020290C080911902882309F48BC0B4
:1006B00080911602811187C08091FE01823009F07D
:1006C00062C00E94570CC090FF01D0900002E090E1
:1006D0000102F09002026C197D098E099F090E94A7
:1006E0001F0F6B017C016091220270E080E090E0BE
:1006F0000E94210F20910D0230910E0240910F02B5
:10070000509110020E94800F4B015C016091230206
:100710007091240280EB94E00E94F21180E090E05E
:100720000E941F0F9B01AC01C501B4010E94800F04
:100730004B015C01609111027091120280E090E027
:100740000E941F0F9B01AC01C501B4010E94D9108A
:100750009B01AC01C701B6010E94ED1187FD33C0BA
:1007600080E00E94DA0280910502882361F18DE128
:1007700091E0FF90EF90DF90CF90BF90AF909F906F
:100780008F900C9446090E94570CC090FF01D090A6
:100790000002E0900102F0900202AB01BC014C1992
:1007A0005D096E097F098091110290911202A0E00B
:1007B000B0E084179507A607B70728F40E940F0238
:1007C0008111D1CFCECFFF90EF90DF90CF90BF902F
:1007D000AF909F908F90089520911802892B41F13E
:1007E00021113CC080911502813049F080910B02AB
:1007F000811147C080912502813009F442C061E037
:100800008AE00E94A20980912502823029F4809119
:1008100007029091080204C08091090290910A0297
:10082000009711F00E940D0A81E08093180227C002
:100830002223A1F060E08AE00E94A20980911502C3
:10084000813061F080910B0281111FC080912502DF
:100850008130D9F0809125028330B9F0809109026E
:1008600090910A02892B31F480910702909108023D
:10087000892B19F08BE00E94AF02109218020C94A1
:100880003C0381E00E94DA02BACF81E00E94DA02E2
:10089000E5CF83E00E947909892B29F481E08093D8
:1008A000040210921502089582E00E947909892BB2
:1008B00029F481E0809303021092150208958F922B
:1008C0009F92AF92BF92CF92DF92EF92FF92CF931F
:1008D0006B017C0180EB94E0BA010E940612072EA6
:1008E000000C880B990B0E94210FA70196010E9412
:1008F000800F0E94B7116B017C010E94570C4B01C5
:100900005C010E94570CDC01CB0188199909AA09E6
:10091000BB098C159D05AE05BF05A0F50E943C03E3
:10092000C0910602C13051F482E00E947909892BFE
:1009300029F483E00E947909892BE9F18091F8017B
:10094000813019F40E94490406C0823011F00E94DF
:1009500049040E94540480912502813091F682E07E
:100960000E947909892B51F183E00E947909892B32
:1009700029F180910302811121C08091040281112B
:100980001DC0BFCF809106028130D1F48091F90162
:100990008823B1F082E00E947909019789F483E00D
:1009A0000E947909019761F41092F90110920302F3
:1009B0001092040205C0C093F901C0CF80912502B6
:1009C000CF91FF90EF90DF90CF90BF90AF909F902E
:1009D0008F900895CF92DF92EF92FF92CF93DF93A3
:1009E00082E08093F80181E090E00E94EC03C091E6
:1009F0002302D091240280911A0290911B02C80F09
:100A0000D91F6091F6017091F70180E090E00E949B
:100A10001F0F20E030E048EC52E40E9445116B01CA
:100A20007C0160910C0270E080E090E00E941F0F5A
:100A300020E030E048E452E40E9445119B01AC0103
:100A4000C701B6010E94800FAE010E945F0480E0E2
:100A500090E00E94EC03C0912302D0912402809187
:100A60001A0290911B02C80FD91F60910C0270E00E
:100A700080E090E00E941F0F20E030E048E452E464
:100A80000E94451120E030E040E450E40E94800FD5
:100A90009B01AC0160E070E080E890E40E94D81017
:100AA000AE010E945F041092F801809125028093AC
:100AB000FE01DF91CF91FF90EF90DF90CF900895EE
:100AC000CF93DF9381E08093F80181E090E00E9472
:100AD000EC03C0912302D091240280911A029091DC
:100AE0001B02C80FD91F60910C0270E080E090E0FB
:100AF0000E941F0F20E030E048E452E40E944511BC
:100B0000AE010E945F0480E090E00E94EC03C0917F
:100B10002302D091240280911A0290911B02C80FE7
:100B2000D91F60910C0270E080E090E00E941F0FDE
:100B300020E030E048E452E40E9445119B01AC0102
:100B400060E070E080E090E40E94D810AE010E9466
:100B50005F041092F801809125028093FE01DF91DD
:100B6000CF910895809106028130A9F48091F90116
:100B7000882389F082E00E947909892B61F083E063
:100B80000E947909892B39F01092F9011092030221
:100B900010920402089580910302882379F0109244
:100BA000030282E0809325020E9460058091050285
:100BB000882321F080EA91E00E9446098091040296
:100BC000882379F01092040282E0809325020E942B
:100BD000EA0480910502882321F08FE191E00C94D2
:100BE00046090895CF93DF9362E082E00E94D10925
:100BF00062E083E00E94D10961E08AE00E94D109AD
:100C000060E08AE00E94A20961E089E00E94D109C7
:100C100060E089E00E94A20961E08BE00E94D109B6
:100C200060E08BE00E94A20960E08EE00E94D109A2
:100C3000C2E0C09306028EEE92E090930A02809387
:100C40000902909308028093070285E090E0909358
:100C50001202809311028EE190E09093140280932F
:100C6000130283E08093210286E696E6A6E6BFE3C0
:100C700080930D0290930E02A0930F02B093100286
:100C8000C093FE018FE08093FC0188E28093FD0118
:100C9000109228031092290310922A0310922B031A
:100CA00010922C038FEF93E09093FB018093FA0155
:100CB00081E080930B02109216021092150280932D
:100CC00027031092170210921B0210921A028CE254
:100CD00091E09093F7018093F601D6E0D093220241
:100CE00082E380930C020E94600290E090932402C1
:100CF000809323020E940C03EDE2F3E0A089B18906
:100D0000CC93A089B1891C92A485B5851C92A68537
:100D1000B78580E18C93108EA489B589DC93A28974
:100D2000B3898C9180618C93A289B3898C918860FE
:100D30008C93A289B3898C9180688C930288F38903
:100D4000E02D80818F7D8083A0E0B1E083E492E09C
:100D500011969C938E93E9E6F0E080818C7F816010
:100D60008083E89A84E592E013969C938E93129781
:100D70008081837F84608083E99A82E390E00E948F
:100D80000D0A62E370E080E090E00E941D0C8BE0B1
:100D90000E94AF0210920502DF91CF910895CF9388
:100DA000DF9390E0FC013197E431F10508F0DBC0FE
:100DB000C62FEC5CFF4F0C941A1210921C0210927A
:100DC00026030E943D02CC2339F081E08093160275
:100DD000DF91CF910C94DA0280E00E94DA02109247
:100DE0001602C1C010921C02109226030E943D02FE
:100DF000C0931502CC2319F081E090E002C080E09E
:100E000090E00E94EC03A5C06F3F39F481E080932D
:100E100027030E94600290E01BC0611105C0109280
:100E20001B0210921A029FC0D0E0442359F0809117
:100E3000230290912402C81BD90BD0931B02C093AC
:100E40001A0291C0CE010E949A0210922703CE018D
:100E5000DF91CF910C949A02DF91CF910C940C0307
:100E600085E0689FB001112470931402609313020F
:100E70007AC085E0689FB0011124709312026093DC
:100E8000110271C070E080E090E00E941F0F20E02E
:100E900030E048EC52E40E94451160930D027093DB
:100EA0000E0280930F02909310025DC060930C02BB
:100EB0005AC00E940C0381E0C11101C080E0809300
:100EC0000B0251C08AE0689FB001112470930A029E
:100ED0006093090248C08AE0689FB00111247093B2
:100EE0000802609307023FC0611102C081E003C0A5
:100EF0006130C9F582E08093060235C0DF91CF9161
:100F00000C94F205DF91CF910C9415028EEE92E0D5
:100F10000E940D0A6AE070E080E090E00E941D0CE3
:100F20008BE0DF91CF910C94AF0281E291E00E94BF
:100F3000460989E491E00E9446098EE491E0DF9140
:100F4000CF910C94460981E0611101C080E080934B
:100F50001702DF91CF910C943D0281E0611101C035
:100F600080E080930502DF91CF910895EF92FF9288
:100F70000F931F93CF93DF93EC017B018A0188814C
:100F80009981009729F02A813B8124173507F8F4CD
:100F9000B8016F5F7F4F0E944113009759F099830A
:100FA00088831B830A832C813D81232B81F4FC01E0
:100FB00010820DC088819981009711F00E94B812AB
:100FC000198218821D821C821B821A8207C01D830F
:100FD0000C83B701888199810E941514CE01DF919D
:100FE000CF911F910F91FF90EF9008951F920F9254
:100FF0000FB60F9211242F933F934F935F936F93EC
:101000007F938F939F93AF93BF93EF93FF93E09161
:101010000201F09103010995FF91EF91BF91AF910A
:101020009F918F917F916F915F914F913F912F9100
:101030000F900FBE0F901F9018951F920F920FB632
:101040000F9211242F933F934F935F936F937F934E
:101050008F939F93AF93BF93EF93FF93E091000122
:10106000F09101010995FF91EF91BF91AF919F918F
:101070008F917F916F915F914F913F912F910F9041
:101080000FBE0F901F9018951F920F920FB60F92E0
:1010900011242F933F934F935F936F937F938F937D
:1010A0009F93AF93BF93EF93FF938091CD03909164
:1010B000CE03A091CF03B091D003892B8A2B8B2B29
:1010C00051F19091CA03E091CB03F091CC03808160
:1010D000892780838091CD039091CE03A091CF0387
:1010E000B091D003181619061A061B06C4F4809195
:1010F000CD039091CE03A091CF03B091D00301977F
:10110000A109B1098093CD039093CE03A093CF039F
:10111000B093D00304C0809104010E94AF02FF91FC
:10112000EF91BF91AF919F918F917F916F915F915F
:101130004F913F912F910F900FBE0F901F901895D8
:101140001F920F920FB60F9211242F933F934F933C
:101150005F936F937F938F939F93AF93BF93EF931F
:10116000FF938DE293E00E947401FF91EF91BF9194
:10117000AF919F918F917F916F915F914F913F912F
:101180002F910F900FBE0F901F9018951F920F92E6
:101190000FB60F9211242F938F939F93EF93FF938A
:1011A000E0913D03F0913E038081E0914303F09193
:1011B000440382FD12C09081809146038F5F8F733C
:1011C00020914703821751F0E0914603F0E0E35D80
:1011D000FC4F958F8093460301C08081FF91EF9172
:1011E0009F918F912F910F900FBE0F901F90189588
:1011F000833081F028F4813099F08230A1F0089595
:101200008730A9F08830B9F08430D1F48091800023
:101210008F7D03C0809180008F7780938000089538
:1012200084B58F7702C084B58F7D84BD0895809189
:10123000B0008F7703C08091B0008F7D8093B000A5
:1012400008953FB7F8948091D6039091D703A09169
:10125000D803B091D90326B5A89B05C02F3F19F03C
:101260000196A11DB11D3FBFBA2FA92F982F882726
:10127000820F911DA11DB11DBC01CD0142E0660F81
:10128000771F881F991F4A95D1F70895009769F035
:10129000FC0101900020E9F73197AF01481B590B81
:1012A000BC018DE293E00C94FF0080E090E0089593
:1012B000CF93DF93EC016115710559F0FB010190AB
:1012C0000020E9F73197AF01461B570B0E94B60784
:1012D0000CC088819981009711F00E94B812198280
:1012E00018821D821C821B821A82CE01DF91CF914F
:1012F0000895CF93DF93282F30E0F901E25AFE4F93
:101300008491F901EE58FE4FD491F901E057FE4F58
:10131000C491CC2391F081110E94F808EC2FF0E0E9
:10132000EE0FFF1FEC5AFE4FA591B491EC91ED2307
:1013300081E090E021F480E002C080E090E0DF9165
:10134000CF9108951F93CF93DF93282F30E0F901B9
:10135000E25AFE4F8491F901EE58FE4FD491F90103
:10136000E057FE4FC491CC23C1F0162F81110E948B
:10137000F808EC2FF0E0EE0FFF1FEA57FE4FA591A3
:10138000B4919FB7F894111104C08C91D095D823D3
:1013900002C0EC91DE2BDC939FBFDF91CF911F91B8
:1013A0000895CF93DF9390E0FC01EE58FE4F249117
:1013B000FC01E057FE4F8491882361F190E0880F93
:1013C000991FFC01E65BFE4FC591D491FC01EA57E1
:1013D000FE4FA591B491611109C09FB7F89488811F
:1013E000209582238883EC912E230BC0623061F418
:1013F0009FB7F8948881322F309583238883EC91AE
:101400002E2B2C939FBF06C08FB7F894E8812E2B0C
:1014100028838FBFDF91CF9108958F929F92AF92D3
:10142000BF92CF92DF92EF92FF921F93CF93DF9301
:10143000EC01809104018B3021F08F3F09F0F1C164
:1014400004C0E4EAF1E014916FC08BE080930401E2
:10145000E4EAF1E014911F3F09F4E3C1113009F40B
:1014600040C030F1123009F05FC01092B00010920D
:10147000B1008091B00082608093B0008091B10093
:1014800081608093B100EBE9F1E0E491F0E0EE0FD0
:10149000FF1FEA57FE4F859194919093CC03809360
:1014A000CB03EDE7F1E0E491E093CA0312E0B4C1AD
:1014B00014BC15BC84B5826084BD85B5816085BDD2
:1014C000EBE9F1E0E491F0E0EE0FFF1FEA57FE4F89
:1014D00085919491EDE7F1E0E491E093DB0310E076
:1014E0009BC11092800010928100809181008860E1
:1014F0008093810080918100816080938100EBE97D
:10150000F1E0E491F0E0EE0FFF1FEA57FE4F859106
:101510009491EDE7F1E0E491E093DA0361E08BE090
:101520000E94D10911E0A5C017FD7BC161E08BE0ED
:101530000E94D109812F8D7F09F09BC06E01E12CA3
:10154000F12C60E072E18AE790E0A70196010E9429
:101550003E1049015A01BA01A901415051096109DE
:1015600071094F3F51056105710509F008F445C047
:1015700060E472E48FE090E0A70196010E943E10C3
:10158000BA01A90141505109610971091230E9F408
:101590004F3F51056105710509F008F4DDC060E9B0
:1015A00070ED83E090E0A70196010E943E10BA0121
:1015B000A90141505109610971094F3F5105610568
:1015C000710509F020F583E04DC04F3F51056105DD
:1015D0007105A9F0A0F068E478EE81E090E0A70141
:1015E00096010E943E10BA01A901415051096109BA
:1015F0007109112309F4E1C0D8C081E001C082E083
:10160000111130C095B5987F892B85BD69C068E4FC
:1016100078EE81E090E0A70196010E943E10BA01A9
:10162000A90141505109610971094F3F51056105F7
:10163000710509F008F48EC064E274EF80E090E078
:10164000A70196010E943E10BA01A901415051091B
:10165000610971094F3F51056105710511F008F0ED
:101660007DC085E09091B100987F892B8093B10077
:1016700031C06E01E12CF12C60E072E18AE790E06C
:10168000A70196010E943E10BA01A90141505109DB
:10169000610971094115510581E06807710580F004
:1016A00068E478EE81E090E0A70196010E943E1088
:1016B000BA01A901415051096109710983E001C0D2
:1016C00081E0113039F490918100987F892B8093CB
:1016D000810018C01130B1F0123049F11111A1C0D0
:1016E00047BD8FEF9FEFDC018093E0039093E10310
:1016F000A093E203B093E30380916E008260809335
:101700006E008FC050938900409388008FEF9FEF49
:10171000DC018093DC039093DD03A093DE03B093A0
:10172000DF0380916F00826080936F007AC04093E6
:10173000B3008FEF9FEFDC018093CD039093CE0336
:10174000A093CF03B093D003809170008260809308
:10175000700067C084E086CF82E084CF62E17AE7E0
:1017600080E090E0A70196010E943E10BA01A90115
:1017700041505109610971094F3F510561057105DA
:1017800091F088F0D501C4012AE0B595A795979509
:1017900087952A95D1F7AC01BD01415051096109E6
:1017A000710987E05FCF86E05DCF4F3F510561054E
:1017B000710509F098F684E023CF4F3F510561058C
:1017C000710541F138F162E17AE780E090E0A7012C
:1017D00096010E943E10BA01A901415051096109C8
:1017E00071094F3F51056105710591F088F0D501F0
:1017F000C4013AE0B595A795979587953A95D1F7A5
:10180000AC01BD01415051096109710985E0FACE71
:1018100084E0F8CE83E0F6CE61E08BE00E94D1094F
:101820008DCEDF91CF911F91FF90EF90DF90CF9001
:10183000BF90AF909F908F9008958F929F92AF929C
:10184000BF92CF92DF92EF92FF926B017C010E94D8
:1018500021094B015C01C114D104E104F104F1F050
:101860000E942109DC01CB0188199909AA09BB0949
:10187000883E9340A105B10570F321E0C21AD1085A
:10188000E108F10888EE880E83E0981EA11CB11CC7
:10189000C114D104E104F10419F7DDCFFF90EF90FA
:1018A000DF90CF90BF90AF909F908F9008952FB70B
:1018B000F8946091D2037091D3038091D4039091F6
:1018C000D5032FBF08951F920F920FB60F921124C8
:1018D0002F933F938F939F93AF93BF938091D203A6
:1018E0009091D303A091D403B091D5033091D1034B
:1018F00023E0230F2D3720F40196A11DB11D05C053
:1019000026E8230F0296A11DB11D2093D1038093D9
:10191000D2039093D303A093D403B093D5038091C3
:10192000D6039091D703A091D803B091D903019623
:10193000A11DB11D8093D6039093D703A093D80324
:10194000B093D903BF91AF919F918F913F912F9108
:101950000F900FBE0F901F901895CF93DF93CDB7C8
:10196000DEB72C970FB6F894DEBF0FBECDBF7894CC
:1019700084B5826084BD84B5816084BD85B5826094
:1019800085BD85B5816085BD80916E008160809345
:101990006E001092810080918100826080938100AE
:1019A00080918100816080938100809180008160BE
:1019B000809380008091B10084608093B100809119
:1019C000B00081608093B00080917A008460809341
:1019D0007A0080917A00826080937A0080917A0008
:1019E000816080937A0080917A00806880937A0089
:1019F0001092C1000E94F20582E0F82E01E00E94E0
:101A000054040E9449040E94B205C12CD12C8DE2DD
:101A100093E00E945E0118161906D4F58DE293E05A
:101A20000E943C018093200290911F02911110C0EE
:101A30008B3159F090911C02E92FF0E0EA5DFD4FE7
:101A400080839F5F90931C0214C000931F0211C0FB
:101A5000913029F480931D02F0921F020AC08093F6
:101A60001E0240E0682F80911D020E94CF06109256
:101A70001F02C114D10441F46AE070E080E090E0FC
:101A80000E941D0C0E943D028FEFC81AD80ABFCFDA
:101A90000E94B2050E940F02882309F426C12091FA
:101AA000260330E0F901EA5DFD4F1081103208F4A1
:101AB00008C118861F821A8619861C861B8640E07C
:101AC00050E06EE171E0CE0107960E94B6070093E8
:101AD0002502812F90E0FC01B097ED35F10508F06B
:101AE000CFC0E85BFF4F0C941A1240912302509133
:101AF000240260E070E080E09FE353C16AEB71E094
:101B0000BBC065EC71E0B8C060EF71E0B5C06BE7D9
:101B100071E0B2C060EA71E0AFC061EE71E0ACC0EC
:101B20006EE971E0A9C064E771E0A6C06CE771E0FE
:101B3000A3C062E671E0A0C069EB71E09DC060E502
:101B400071E09AC068E571E097C06FE971E094C0F8
:101B500067E571E091C061EB71E08EC068EB71E008
:101B60008BC061EF71E088C066EC71E085C069E50B
:101B700071E082C06AEE71E07FC060E871E07CC015
:101B800065EA71E079C069EE71E076C064EA71E0FF
:101B900073C06AE771E070C065E571E06DC06BE528
:101BA00071E06AC061E671E067C067E671E064C039
:101BB00062ED71E061C06DE671E05EC063E771E007
:101BC0005BC064EC71E058C069E771E055C06CE936
:101BD00071E052C06FE771E04FC060EE71E04CC041
:101BE000C0902302D09024026091220270E0809184
:101BF0002102681B710962507109072E000C880BC5
:101C0000990B0E94210FA6010E945F0439C065E86C
:101C100071E032C06DE871E02FC064E971E02CC062
:101C20006BE971E029C062EA71E026C069EA71E0FF
:101C300023C060EB71E020C066EB71E01DC06DEB6E
:101C400071E01AC063EC71E017C06AEC71E014C077
:101C500061ED71E011C068ED71E00EC06FED71E0F3
:101C60000BC066EE71E008C06EEE71E005C06BEC73
:101C700071E002C066E871E0CE0107960E94580943
:101C80001A8219821C821B821E821D826F817885B6
:101C90006115710531F04B855C85CE0101960E947E
:101CA000B60700932502AD80BE80C12CD12CCA148A
:101CB000DB040CF062C080912502833009F078C00B
:101CC0005CC09FEF910F943180F4823070F0F90185
:101CD0003196FF27EA5DFD4F41E06081812F0E9430
:101CE000CF060E9456020E9456020E943C030E94A8
:101CF000570C8090290390902A03A0902B03B0905A
:101D00002C03DC01CB0188199909AA09BB09873981
:101D10009105A105B10570F10E946002182FC82E2F
:101D2000D12C80912803B601681B710977FF03C08D
:101D3000719561957109072E000C880B990B0E9413
:101D4000210F26E636E646E65FE30E94ED111816FF
:101D50003CF400932703C6010E949A0210932803C3
:101D60000E94570C6093290370932A0380932B03DE
:101D700090932C030E94050242CE89819A810E9491
:101D8000B812C0902302D09024026091210270E02A
:101D900061507109072E000C880B990B0E94210FCE
:101DA000A6010E945F048F8198850E94B8129BCF84
:101DB0008D819E81C816D90688F489819A81009701
:101DC00069F0FC01EC0DFD1D80818E3219F40E943A
:101DD000600504C08D3211F40E94EA048FEFC81A26
:101DE000D80A65CFEDE2F3E01382128288EE93E029
:101DF000A0E0B0E084839583A683B7838FE091E071
:101E00009183808385EC90E09587848784EC90E0D3
:101E10009787868780EC90E0918B808B81EC90E0B7
:101E2000938B828B82EC90E0958B848B86EC90E098
:101E3000978B868B118E128E138E148E0895E894D4
:101E400009C097FB3EF490958095709561957F4F02
:101E50008F4F9F4F9923A9F0F92F96E9BB279395B0
:101E6000F695879577956795B795F111F8CFFAF4C0
:101E7000BB0F11F460FF1BC06F5F7F4F8F4F9F4FF1
:101E800016C0882311F096E911C0772321F09EE84F
:101E9000872F762F05C0662371F096E8862F70E0B5
:101EA00060E02AF09A95660F771F881FDAF7880F8F
:101EB0009695879597F90895990F0008550FAA0BE5
:101EC000E0E8FEEF16161706E807F907C0F012164D
:101ED0001306E407F50798F0621B730B840B950B50
:101EE00039F40A2661F0232B242B252B21F40895A5
:101EF0000A2609F4A140A6958FEF811D811D089542
:101F00000E94930F0C9404100E94F60F38F00E9468
:101F1000FD0F20F0952311F00C94ED0F0C94F30FAE
:101F200011240C9438100E94151070F3959FC1F382
:101F3000950F50E0551F629FF001729FBB27F00D77
:101F4000B11D639FAA27F00DB11DAA1F649F6627CC
:101F5000B00DA11D661F829F2227B00DA11D621F1B
:101F6000739FB00DA11D621F839FA00D611D221FD5
:101F7000749F3327A00D611D231F849F600D211DB9
:101F8000822F762F6A2F11249F5750409AF0F1F03C
:101F900088234AF0EE0FFF1FBB1F661F771F881FA5
:101FA00091505040A9F79E3F510580F00C94ED0FE1
:101FB0000C9438105F3FE4F3983ED4F38695779500
:101FC0006795B795F795E7959F5FC1F7FE2B880F4B
:101FD000911D9695879597F9089597F99F6780E8E1
:101FE00070E060E008959FEF80EC089500240A946B
:101FF0001616170618060906089500240A941216E4
:102000001306140605060895092E0394000C11F416
:10201000882352F0BB0F40F4BF2B11F460FF04C0C3
:102020006F5F7F4F8F4F9F4F089557FD9058440F1C
:10203000551F59F05F3F71F04795880F97FB991F27
:1020400061F09F3F79F087950895121613061406E4
:10205000551FF2CF4695F1DF08C016161706180671
:10206000991FF1CF86957105610508940895E8944C
:10207000BB2766277727CB0197F90895052E97FB95
:102080001EF400940E94551057FD07D00E94A7101F
:1020900007FC03D04EF40C945510509540953095A4
:1020A00021953F4F4F4F5F4F0895909580957095C4
:1020B00061957F4F8F4F9F4F08950E94C910A59F34
:1020C000900DB49F900DA49F800D911D1124089533
:1020D000B7FF0C945D100E945D10821B930B089556
:1020E0002F923F924F925F926F927F928F929F9228
:1020F000AF92BF92CF92DF92EF92FF920F931F9316
:10210000CF93DF93CDB7DEB7CA1BDB0B0FB6F894C6
:10211000DEBF0FBECDBF09942A88398848885F8406
:102120006E847D848C849B84AA84B984C884DF8077
:10213000EE80FD800C811B81AA81B981CE0FD11D5B
:102140000FB6F894DEBF0FBECDBFED010895A1E23A
:102150001A2EAA1BBB1BFD010DC0AA1FBB1FEE1F21
:10216000FF1FA217B307E407F50720F0A21BB30B6C
:10217000E40BF50B661F771F881F991F1A9469F7E8
:1021800060957095809590959B01AC01BD01CF0144
:102190000895A29FB001B39FC001A39F700D811D40
:1021A0001124911DB29F700D811D1124911D089560
:1021B0005058BB27AA270E94F0100C9404100E94CC
:1021C000F60F38F00E94FD0F20F039F49F3F19F40C
:1021D00026F40C94F30F0EF4E095E7FB0C94ED0F4E
:1021E000E92F0E94151058F3BA1762077307840786
:1021F000950720F079F4A6F50C9437100EF4E095CD
:102200000B2EBA2FA02D0B01B90190010C01CA01B0
:10221000A0011124FF27591B99F0593F50F4503E5B
:1022200068F11A16F040A22F232F342F4427585F4D
:10223000F3CF469537952795A795F0405395C9F765
:102240007EF41F16BA0B620B730B840BBAF091501D
:10225000A1F0FF0FBB1F661F771F881FC2F70EC0BC
:10226000BA0F621F731F841F48F48795779567958F
:10227000B795F7959E3F08F0B0CF9395880F08F07B
:102280009927EE0F9795879508950E9459110C9400
:1022900004100E94FD0F58F00E94F60F40F029F440
:1022A0005F3F29F00C94ED0F51110C9438100C94F1
:1022B000F30F0E94151068F39923B1F3552391F39E
:1022C000951B550BBB27AA2762177307840738F0A5
:1022D0009F5F5F4F220F331F441FAA1FA9F335D002
:1022E0000E2E3AF0E0E832D091505040E695001CB6
:1022F000CAF72BD0FE2F29D0660F771F881FBB1F70
:10230000261737074807AB07B0E809F0BB0B802D4D
:10231000BF01FF2793585F4F3AF09E3F510578F079
:102320000C94ED0F0C9438105F3FE4F3983ED4F317
:10233000869577956795B795F7959F5FC9F7880F4D
:10234000911D9695879597F90895E1E0660F771F9F
:10235000881FBB1F621773078407BA0720F0621B30
:10236000730B840BBA0BEE1F88F7E09508950E945B
:10237000BE116894B1110C94381008950E941D107C
:1023800088F09F5798F0B92F9927B751B0F0E1F036
:10239000660F771F881F991F1AF0BA95C9F714C0E6
:1023A000B13091F00E943710B1E008950C943710CD
:1023B000672F782F8827B85F39F0B93FCCF386951F
:1023C00077956795B395D9F73EF49095809570957C
:1023D00061957F4F8F4F9F4F08950E945C0F08F4C7
:1023E0008FEF0895AA1BBB1B51E107C0AA1FBB1F9B
:1023F000A617B70710F0A61BB70B881F991F5A9591
:10240000A9F780959095BC01CD01089597FB072E03
:1024100016F4009407D077FD09D00E94F21107FC52
:1024200005D03EF4909581959F4F089570956195E4
:102430007F4F0895EE0FFF1F0590F491E02D099452
:102440000F931F93CF93DF938230910510F482E0B6
:1024500090E0E091E603F091E70320E030E0A0E0B7
:10246000B0E0309719F14081518102811381481702
:102470005907C8F08417950769F4109731F0129640
:102480000C93129713961C9327C00093E6031093A6
:10249000E70322C02115310519F04217530718F43C
:1024A0009A01BD01EF01DF01F801DBCF21153105F4
:1024B000F9F0281B390B2430310580F48A819B8187
:1024C0006115710521F0FB019383828304C0909311
:1024D000E7038093E603FE01329644C0FE01E20F5B
:1024E000F31F8193919322503109398328833AC095
:1024F0002091E4033091E503232B41F4209107015F
:10250000309108013093E5032093E4032091050105
:10251000309106012115310541F42DB73EB74091A8
:10252000090150910A01241B350BE091E403F0915D
:10253000E503E217F307A0F42E1B3F0B281739071A
:1025400078F0AC014E5F5F4F2417350748F04E0F0F
:102550005F1F5093E5034093E4038193919302C07E
:10256000E0E0F0E0CF01DF91CF911F910F9108954E
:10257000CF93DF93009709F481C0FC013297138257
:102580001282A091E603B091E703109781F42081B5
:102590003181820F931F2091E4033091E5032817C6
:1025A000390751F5F093E503E093E40367C0ED01CB
:1025B00020E030E0CE17DF0740F44A815B819E01C6
:1025C00041155105F1F0EA01F5CFD383C283408173
:1025D0005181840F951FC817D90759F488819981B3
:1025E000840F951F0296918380838A819B819383B8
:1025F00082832115310529F4F093E703E093E60384
:102600003DC0E901FB83EA8349915991C40FD51F6D
:10261000EC17FD0761F480819181840F951F02966C
:10262000E90199838883828193819B838A83E0E097
:10263000F0E012968D919C911397009719F0FD018F
:10264000DC01F7CF8D919C9111979D012E5F3F4F3B
:10265000820F931F2091E4033091E5032817390777
:1026600069F4309729F41092E7031092E60302C050
:1026700013821282B093E503A093E403DF91CF911C
:102680000895A0E0B0E0E7E4F3E10C947410EC01ED
:10269000009721F4CB010E942012B4C0FC01E60F88
:1026A000F71F9C0122503109E217F30708F4A8C074
:1026B000D9010D911C91119706171707B0F005303D
:1026C000110508F49BC0C80104978617970708F402
:1026D00095C002501109061B170B019311936D93BE
:1026E0007C93CF010E94B81289C05B01A01AB10A85
:1026F0004C01800E911EA091E603B091E703612C7E
:10270000712CE12CF12C109709F446C08D919C910D
:102710001197A815B905B1F56C0142E0C40ED11CA2
:10272000CA14DB0478F14C018A189B08640142E06A
:10273000C40ED11C1296BC9012971396AC91B5E0C2
:10274000CB16D10440F0B282A38391828082D9015A
:102750006D937C9309C00E5F1F4F800F911FF9018D
:1027600091838083EB2DFA2FE114F10431F0D7012E
:102770001396FC93EE93129741C0F093E703E09316
:10278000E6033CC06816790608F43C017D01129608
:102790000D90BC91A02DB7CF8091E4039091E503FB
:1027A00088169906E1F466167706C8F4809105014B
:1027B00090910601009741F48DB79EB740910901B1
:1027C00050910A01841B950BE817F907C8F4F093A0
:1027D000E503E093E403F901718360830FC0CB014B
:1027E0000E9420127C01009759F0A801BE010E94AE
:1027F0000C14CE010E94B812C70104C0CE0102C061
:1028000080E090E0CDB7DEB7EEE00C94901081E070
:1028100090E0F8940C941C14FB01DC0102C00190C0
:102820000D9241505040D8F70895FB01DC01019012
:0C2830000D920020E1F70895F894FFCF0E
:10283C00FE00FE00FF0000E8038000000000009690
:10284C0001FF002D01E3015E013C0150010A005F14
:10285C0000537069646572204B657965722028415C
:10286C00726475696E6F204E616E6F2920627920DB
:10287C004F4B31464947205B00312E3030005D0014
:10288C002E2D2E2E002D2D2D2D2D002E2D2D2D2DC2
:10289C00002E2E2D2D2D002E2E2E2D2D002E2E2EDB
:1028AC002E2E002D2E2E2E2E002D2D2D2E2E002DCB
:1028BC002E2E2E2D002D2E2E2E2D2E2D002E2D2E8D
:1028CC002D2E2D002D2D2E2E2D2D002E2D2D2D2D82
:1028DC002E002D2E2D2E2D2D002E2E2D2D2E2E009C
:1028EC002D2E2D2D2E002D2E2D2D2E2D002E2D2E60
:1028FC002E2E002D2D2D2E2E2E002D2E2D2E2D2E4E
:10290C00002D2E2E2E2E2D002E2E2D2D2E2D002E6A
:10291C002D2E2E2D2E002E2E2E2D2E2E2D002E2D2C
:06292C002D2E2D2E0000EF
:00000001FF
